{
  "contractName": "DAO",
  "abi": [
    {
      "inputs": [
        {
          "internalType": "address[]",
          "name": "initialMembers",
          "type": "address[]"
        }
      ],
      "stateMutability": "nonpayable",
      "type": "constructor"
    },
    {
      "inputs": [],
      "name": "chairperson",
      "outputs": [
        {
          "internalType": "address",
          "name": "",
          "type": "address"
        }
      ],
      "stateMutability": "view",
      "type": "function",
      "constant": true
    },
    {
      "inputs": [
        {
          "internalType": "uint256",
          "name": "",
          "type": "uint256"
        }
      ],
      "name": "memberList",
      "outputs": [
        {
          "internalType": "address",
          "name": "",
          "type": "address"
        }
      ],
      "stateMutability": "view",
      "type": "function",
      "constant": true
    },
    {
      "inputs": [
        {
          "internalType": "address",
          "name": "",
          "type": "address"
        }
      ],
      "name": "members",
      "outputs": [
        {
          "internalType": "bool",
          "name": "",
          "type": "bool"
        }
      ],
      "stateMutability": "view",
      "type": "function",
      "constant": true
    },
    {
      "inputs": [
        {
          "internalType": "uint256",
          "name": "",
          "type": "uint256"
        }
      ],
      "name": "proposals",
      "outputs": [
        {
          "internalType": "string",
          "name": "description",
          "type": "string"
        },
        {
          "internalType": "bool",
          "name": "executed",
          "type": "bool"
        },
        {
          "internalType": "string",
          "name": "winningOption",
          "type": "string"
        },
        {
          "internalType": "uint256",
          "name": "winningVotes",
          "type": "uint256"
        }
      ],
      "stateMutability": "view",
      "type": "function",
      "constant": true
    },
    {
      "inputs": [
        {
          "internalType": "address",
          "name": "newMember",
          "type": "address"
        }
      ],
      "name": "addMember",
      "outputs": [],
      "stateMutability": "nonpayable",
      "type": "function"
    },
    {
      "inputs": [
        {
          "internalType": "address",
          "name": "memberToRemove",
          "type": "address"
        }
      ],
      "name": "removeMember",
      "outputs": [],
      "stateMutability": "nonpayable",
      "type": "function"
    },
    {
      "inputs": [
        {
          "internalType": "string",
          "name": "description",
          "type": "string"
        },
        {
          "internalType": "string[]",
          "name": "options",
          "type": "string[]"
        }
      ],
      "name": "createProposal",
      "outputs": [],
      "stateMutability": "nonpayable",
      "type": "function"
    },
    {
      "inputs": [
        {
          "internalType": "uint256",
          "name": "proposalIndex",
          "type": "uint256"
        },
        {
          "internalType": "uint256",
          "name": "optionIndex",
          "type": "uint256"
        }
      ],
      "name": "vote",
      "outputs": [],
      "stateMutability": "nonpayable",
      "type": "function"
    },
    {
      "inputs": [
        {
          "internalType": "uint256",
          "name": "proposalIndex",
          "type": "uint256"
        }
      ],
      "name": "executeProposal",
      "outputs": [],
      "stateMutability": "nonpayable",
      "type": "function"
    },
    {
      "inputs": [
        {
          "internalType": "uint256",
          "name": "index",
          "type": "uint256"
        }
      ],
      "name": "getProposal",
      "outputs": [
        {
          "internalType": "string",
          "name": "description",
          "type": "string"
        },
        {
          "internalType": "string[]",
          "name": "options",
          "type": "string[]"
        },
        {
          "internalType": "uint256[]",
          "name": "voteCounts",
          "type": "uint256[]"
        },
        {
          "internalType": "bool",
          "name": "executed",
          "type": "bool"
        },
        {
          "internalType": "bool",
          "name": "hasVoted",
          "type": "bool"
        },
        {
          "internalType": "string",
          "name": "winningOption",
          "type": "string"
        },
        {
          "internalType": "uint256",
          "name": "winningVotes",
          "type": "uint256"
        }
      ],
      "stateMutability": "view",
      "type": "function",
      "constant": true
    },
    {
      "inputs": [],
      "name": "countMembers",
      "outputs": [
        {
          "internalType": "uint256",
          "name": "",
          "type": "uint256"
        }
      ],
      "stateMutability": "view",
      "type": "function",
      "constant": true
    },
    {
      "inputs": [],
      "name": "getProposalsCount",
      "outputs": [
        {
          "internalType": "uint256",
          "name": "",
          "type": "uint256"
        }
      ],
      "stateMutability": "view",
      "type": "function",
      "constant": true
    },
    {
      "inputs": [
        {
          "internalType": "address",
          "name": "user",
          "type": "address"
        }
      ],
      "name": "isMember",
      "outputs": [
        {
          "internalType": "bool",
          "name": "",
          "type": "bool"
        }
      ],
      "stateMutability": "view",
      "type": "function",
      "constant": true
    }
  ],
  "bytecode": "0x60806040523480156200001157600080fd5b506040516200294938038062002949833981810160405281019062000037919062000420565b336000806101000a81548173ffffffffffffffffffffffffffffffffffffffff021916908373ffffffffffffffffffffffffffffffffffffffff16021790555060005b8151811015620001ef576000828281518110620000c0577f4e487b7100000000000000000000000000000000000000000000000000000000600052603260045260246000fd5b60200260200101519050600260008273ffffffffffffffffffffffffffffffffffffffff1673ffffffffffffffffffffffffffffffffffffffff16815260200190815260200160002060009054906101000a900460ff16620001d8576001600260008373ffffffffffffffffffffffffffffffffffffffff1673ffffffffffffffffffffffffffffffffffffffff16815260200190815260200160002060006101000a81548160ff0219169083151502179055506003819080600181540180825580915050600190039060005260206000200160009091909190916101000a81548173ffffffffffffffffffffffffffffffffffffffff021916908373ffffffffffffffffffffffffffffffffffffffff1602179055505b508080620001e69062000506565b9150506200007a565b50600260008060009054906101000a900473ffffffffffffffffffffffffffffffffffffffff1673ffffffffffffffffffffffffffffffffffffffff1673ffffffffffffffffffffffffffffffffffffffff16815260200190815260200160002060009054906101000a900460ff1662000360576001600260008060009054906101000a900473ffffffffffffffffffffffffffffffffffffffff1673ffffffffffffffffffffffffffffffffffffffff1673ffffffffffffffffffffffffffffffffffffffff16815260200190815260200160002060006101000a81548160ff021916908315150217905550600360008054906101000a900473ffffffffffffffffffffffffffffffffffffffff169080600181540180825580915050600190039060005260206000200160009091909190916101000a81548173ffffffffffffffffffffffffffffffffffffffff021916908373ffffffffffffffffffffffffffffffffffffffff1602179055505b50620005cc565b60006200037e620003788462000499565b62000465565b905080838252602082019050828560208602820111156200039e57600080fd5b60005b85811015620003d25781620003b78882620003dc565b845260208401935060208301925050600181019050620003a1565b5050509392505050565b600081519050620003ed81620005b2565b92915050565b600082601f8301126200040557600080fd5b81516200041784826020860162000367565b91505092915050565b6000602082840312156200043357600080fd5b600082015167ffffffffffffffff8111156200044e57600080fd5b6200045c84828501620003f3565b91505092915050565b6000604051905081810181811067ffffffffffffffff821117156200048f576200048e62000583565b5b8060405250919050565b600067ffffffffffffffff821115620004b757620004b662000583565b5b602082029050602081019050919050565b6000620004d582620004dc565b9050919050565b600073ffffffffffffffffffffffffffffffffffffffff82169050919050565b6000819050919050565b60006200051382620004fc565b91507fffffffffffffffffffffffffffffffffffffffffffffffffffffffffffffffff82141562000549576200054862000554565b5b600182019050919050565b7f4e487b7100000000000000000000000000000000000000000000000000000000600052601160045260246000fd5b7f4e487b7100000000000000000000000000000000000000000000000000000000600052604160045260246000fd5b620005bd81620004c8565b8114620005c957600080fd5b50565b61236d80620005dc6000396000f3fe608060405234801561001057600080fd5b50600436106100cf5760003560e01c80636ca912021161008c578063b307fc6d11610066578063b307fc6d14610215578063b384abef14610245578063c7f758a814610261578063ca6d56dc14610297576100cf565b80636ca91202146101ab57806398e527d3146101c7578063a230c524146101e5576100cf565b8063013cf08b146100d457806308ae4b0c146101075780630b1ca49a146101375780630d61b519146101535780632cd046eb1461016f5780632e4176cf1461018d575b600080fd5b6100ee60048036038101906100e99190611889565b6102b3565b6040516100fe9493929190611dc2565b60405180910390f35b610121600480360381019061011c91906117f4565b610410565b60405161012e9190611d1c565b60405180910390f35b610151600480360381019061014c91906117f4565b610430565b005b61016d60048036038101906101689190611889565b61085a565b005b610177610b16565b6040516101849190611f35565b60405180910390f35b610195610b23565b6040516101a29190611d01565b60405180910390f35b6101c560048036038101906101c0919061181d565b610b47565b005b6101cf610d14565b6040516101dc9190611f35565b60405180910390f35b6101ff60048036038101906101fa91906117f4565b610d21565b60405161020c9190611d1c565b60405180910390f35b61022f600480360381019061022a9190611889565b610d77565b60405161023c9190611d01565b60405180910390f35b61025f600480360381019061025a91906118b2565b610db6565b005b61027b60048036038101906102769190611889565b611042565b60405161028e9796959493929190611d37565b60405180910390f35b6102b160048036038101906102ac91906117f4565b61140d565b005b600181815481106102c357600080fd5b90600052602060002090600702016000915090508060000180546102e6906121c1565b80601f0160208091040260200160405190810160405280929190818152602001828054610312906121c1565b801561035f5780601f106103345761010080835404028352916020019161035f565b820191906000526020600020905b81548152906001019060200180831161034257829003601f168201915b5050505050908060040160009054906101000a900460ff1690806005018054610387906121c1565b80601f01602080910402602001604051908101604052809291908181526020018280546103b3906121c1565b80156104005780601f106103d557610100808354040283529160200191610400565b820191906000526020600020905b8154815290600101906020018083116103e357829003601f168201915b5050505050908060060154905084565b60026020528060005260406000206000915054906101000a900460ff1681565b60008054906101000a900473ffffffffffffffffffffffffffffffffffffffff1673ffffffffffffffffffffffffffffffffffffffff163373ffffffffffffffffffffffffffffffffffffffff16146104be576040517f08c379a00000000000000000000000000000000000000000000000000000000081526004016104b590611ed5565b60405180910390fd5b600260008273ffffffffffffffffffffffffffffffffffffffff1673ffffffffffffffffffffffffffffffffffffffff16815260200190815260200160002060009054906101000a900460ff1661054a576040517f08c379a000000000000000000000000000000000000000000000000000000000815260040161054190611e35565b60405180910390fd5b60008054906101000a900473ffffffffffffffffffffffffffffffffffffffff1673ffffffffffffffffffffffffffffffffffffffff168173ffffffffffffffffffffffffffffffffffffffff1614156105d9576040517f08c379a00000000000000000000000000000000000000000000000000000000081526004016105d090611ef5565b60405180910390fd5b6000600260008373ffffffffffffffffffffffffffffffffffffffff1673ffffffffffffffffffffffffffffffffffffffff16815260200190815260200160002060006101000a81548160ff02191690831515021790555060005b600380549050811015610856578173ffffffffffffffffffffffffffffffffffffffff1660038281548110610692577f4e487b7100000000000000000000000000000000000000000000000000000000600052603260045260246000fd5b9060005260206000200160009054906101000a900473ffffffffffffffffffffffffffffffffffffffff1673ffffffffffffffffffffffffffffffffffffffff16141561084357600360016003805490506106ed9190612103565b81548110610724577f4e487b7100000000000000000000000000000000000000000000000000000000600052603260045260246000fd5b9060005260206000200160009054906101000a900473ffffffffffffffffffffffffffffffffffffffff1660038281548110610789577f4e487b7100000000000000000000000000000000000000000000000000000000600052603260045260246000fd5b9060005260206000200160006101000a81548173ffffffffffffffffffffffffffffffffffffffff021916908373ffffffffffffffffffffffffffffffffffffffff1602179055506003805480610809577f4e487b7100000000000000000000000000000000000000000000000000000000600052603160045260246000fd5b6001900381819060005260206000200160006101000a81549073ffffffffffffffffffffffffffffffffffffffff02191690559055610856565b808061084e906121f3565b915050610634565b5050565b60008054906101000a900473ffffffffffffffffffffffffffffffffffffffff1673ffffffffffffffffffffffffffffffffffffffff163373ffffffffffffffffffffffffffffffffffffffff16146108e8576040517f08c379a00000000000000000000000000000000000000000000000000000000081526004016108df90611ed5565b60405180910390fd5b600060018281548110610924577f4e487b7100000000000000000000000000000000000000000000000000000000600052603260045260246000fd5b906000526020600020906007020190508060040160009054906101000a900460ff1615610986576040517f08c379a000000000000000000000000000000000000000000000000000000000815260040161097d90611e55565b60405180910390fd5b6000805b82600101805490508110156109cf5782600301600082815260200190815260200160002054826109ba919061207c565b915080806109c7906121f3565b91505061098a565b5060026109da610b16565b6109e491906120d2565b8111610a25576040517f08c379a0000000000000000000000000000000000000000000000000000000008152600401610a1c90611e95565b60405180910390fd5b60008060005b8460010180549050811015610a865782856003016000838152602001908152602001600020541115610a73578460030160008281526020019081526020016000205492508091505b8080610a7e906121f3565b915050610a2b565b50836001018181548110610ac3577f4e487b7100000000000000000000000000000000000000000000000000000000600052603260045260246000fd5b9060005260206000200184600501908054610add906121c1565b610ae89291906115ab565b5081846006018190555060018460040160006101000a81548160ff0219169083151502179055505050505050565b6000600380549050905090565b60008054906101000a900473ffffffffffffffffffffffffffffffffffffffff1681565b600260003373ffffffffffffffffffffffffffffffffffffffff1673ffffffffffffffffffffffffffffffffffffffff16815260200190815260200160002060009054906101000a900460ff16610bd3576040517f08c379a0000000000000000000000000000000000000000000000000000000008152600401610bca90611e15565b60405180910390fd5b600281511015610c18576040517f08c379a0000000000000000000000000000000000000000000000000000000008152600401610c0f90611eb5565b60405180910390fd5b600060018081600181540180825580915050039060005260206000209060070201905082816000019080519060200190610c53929190611638565b5060008160040160006101000a81548160ff02191690831515021790555060005b8251811015610d0e5781600101838281518110610cba577f4e487b7100000000000000000000000000000000000000000000000000000000600052603260045260246000fd5b6020026020010151908060018154018082558091505060019003906000526020600020016000909190919091509080519060200190610cfa929190611638565b508080610d06906121f3565b915050610c74565b50505050565b6000600180549050905090565b6000600260008373ffffffffffffffffffffffffffffffffffffffff1673ffffffffffffffffffffffffffffffffffffffff16815260200190815260200160002060009054906101000a900460ff169050919050565b60038181548110610d8757600080fd5b906000526020600020016000915054906101000a900473ffffffffffffffffffffffffffffffffffffffff1681565b600260003373ffffffffffffffffffffffffffffffffffffffff1673ffffffffffffffffffffffffffffffffffffffff16815260200190815260200160002060009054906101000a900460ff16610e42576040517f08c379a0000000000000000000000000000000000000000000000000000000008152600401610e3990611e15565b60405180910390fd5b600060018381548110610e7e577f4e487b7100000000000000000000000000000000000000000000000000000000600052603260045260246000fd5b906000526020600020906007020190508060020160003373ffffffffffffffffffffffffffffffffffffffff1673ffffffffffffffffffffffffffffffffffffffff16815260200190815260200160002060009054906101000a900460ff1615610f1d576040517f08c379a0000000000000000000000000000000000000000000000000000000008152600401610f1490611f15565b60405180910390fd5b8060040160009054906101000a900460ff1615610f6f576040517f08c379a0000000000000000000000000000000000000000000000000000000008152600401610f6690611e55565b60405180910390fd5b80600101805490508210610fb8576040517f08c379a0000000000000000000000000000000000000000000000000000000008152600401610faf90611e75565b60405180910390fd5b60018160020160003373ffffffffffffffffffffffffffffffffffffffff1673ffffffffffffffffffffffffffffffffffffffff16815260200190815260200160002060006101000a81548160ff0219169083151502179055508060030160008381526020019081526020016000206000815480929190611038906121f3565b9190505550505050565b6060806060600080606060008060018981548110611089577f4e487b7100000000000000000000000000000000000000000000000000000000600052603260045260246000fd5b906000526020600020906007020190506000816001018054905067ffffffffffffffff8111156110e2577f4e487b7100000000000000000000000000000000000000000000000000000000600052604160045260246000fd5b6040519080825280602002602001820160405280156111105781602001602082028036833780820191505090505b50905060005b82600101805490508110156111935782600301600082815260200190815260200160002054828281518110611174577f4e487b7100000000000000000000000000000000000000000000000000000000600052603260045260246000fd5b602002602001018181525050808061118b906121f3565b915050611116565b508160000182600101828460040160009054906101000a900460ff168560020160003373ffffffffffffffffffffffffffffffffffffffff1673ffffffffffffffffffffffffffffffffffffffff16815260200190815260200160002060009054906101000a900460ff16866005018760060154868054611213906121c1565b80601f016020809104026020016040519081016040528092919081815260200182805461123f906121c1565b801561128c5780601f106112615761010080835404028352916020019161128c565b820191906000526020600020905b81548152906001019060200180831161126f57829003601f168201915b5050505050965085805480602002602001604051908101604052809291908181526020016000905b828210156113605783829060005260206000200180546112d3906121c1565b80601f01602080910402602001604051908101604052809291908181526020018280546112ff906121c1565b801561134c5780601f106113215761010080835404028352916020019161134c565b820191906000526020600020905b81548152906001019060200180831161132f57829003601f168201915b5050505050815260200190600101906112b4565b505050509550818054611372906121c1565b80601f016020809104026020016040519081016040528092919081815260200182805461139e906121c1565b80156113eb5780601f106113c0576101008083540402835291602001916113eb565b820191906000526020600020905b8154815290600101906020018083116113ce57829003601f168201915b5050505050915098509850985098509850985098505050919395979092949650565b60008054906101000a900473ffffffffffffffffffffffffffffffffffffffff1673ffffffffffffffffffffffffffffffffffffffff163373ffffffffffffffffffffffffffffffffffffffff161461149b576040517f08c379a000000000000000000000000000000000000000000000000000000000815260040161149290611ed5565b60405180910390fd5b600260008273ffffffffffffffffffffffffffffffffffffffff1673ffffffffffffffffffffffffffffffffffffffff16815260200190815260200160002060009054906101000a900460ff166115a8576001600260008373ffffffffffffffffffffffffffffffffffffffff1673ffffffffffffffffffffffffffffffffffffffff16815260200190815260200160002060006101000a81548160ff0219169083151502179055506003819080600181540180825580915050600190039060005260206000200160009091909190916101000a81548173ffffffffffffffffffffffffffffffffffffffff021916908373ffffffffffffffffffffffffffffffffffffffff1602179055505b50565b8280546115b7906121c1565b90600052602060002090601f0160209004810192826115d95760008555611627565b82601f106115ea5780548555611627565b8280016001018555821561162757600052602060002091601f016020900482015b8281111561162657825482559160010191906001019061160b565b5b50905061163491906116be565b5090565b828054611644906121c1565b90600052602060002090601f01602090048101928261166657600085556116ad565b82601f1061167f57805160ff19168380011785556116ad565b828001600101855582156116ad579182015b828111156116ac578251825591602001919060010190611691565b5b5090506116ba91906116be565b5090565b5b808211156116d75760008160009055506001016116bf565b5090565b60006116ee6116e984611f81565b611f50565b9050808382526020820190508260005b8581101561172e578135850161171488826117b5565b8452602084019350602083019250506001810190506116fe565b5050509392505050565b600061174b61174684611fad565b611f50565b90508281526020810184848401111561176357600080fd5b61176e84828561217f565b509392505050565b60008135905061178581612309565b92915050565b600082601f83011261179c57600080fd5b81356117ac8482602086016116db565b91505092915050565b600082601f8301126117c657600080fd5b81356117d6848260208601611738565b91505092915050565b6000813590506117ee81612320565b92915050565b60006020828403121561180657600080fd5b600061181484828501611776565b91505092915050565b6000806040838503121561183057600080fd5b600083013567ffffffffffffffff81111561184a57600080fd5b611856858286016117b5565b925050602083013567ffffffffffffffff81111561187357600080fd5b61187f8582860161178b565b9150509250929050565b60006020828403121561189b57600080fd5b60006118a9848285016117df565b91505092915050565b600080604083850312156118c557600080fd5b60006118d3858286016117df565b92505060206118e4858286016117df565b9150509250929050565b60006118fa8383611a0b565b905092915050565b600061190e8383611ce3565b60208301905092915050565b61192381612137565b82525050565b600061193482611ffd565b61193e8185612038565b93508360208202850161195085611fdd565b8060005b8581101561198c578484038952815161196d85826118ee565b94506119788361201e565b925060208a01995050600181019050611954565b50829750879550505050505092915050565b60006119a982612008565b6119b38185612049565b93506119be83611fed565b8060005b838110156119ef5781516119d68882611902565b97506119e18361202b565b9250506001810190506119c2565b5085935050505092915050565b611a0581612149565b82525050565b6000611a1682612013565b611a20818561205a565b9350611a3081856020860161218e565b611a39816122f8565b840191505092915050565b6000611a4f82612013565b611a59818561206b565b9350611a6981856020860161218e565b611a72816122f8565b840191505092915050565b6000611a8a601f8361206b565b91507f536f6c6f206d69656d62726f732070756564656e2070617274696369706172006000830152602082019050919050565b6000611aca601d8361206b565b91507f4c6120646972656363696f6e206e6f20657320756e206d69656d62726f0000006000830152602082019050919050565b6000611b0a60168361206b565b91507f50726f70756573746120796120656a65637574616461000000000000000000006000830152602082019050919050565b6000611b4a600f8361206b565b91507f4f7063696f6e20696e76616c69646100000000000000000000000000000000006000830152602082019050919050565b6000611b8a600e8361206b565b91507f4e6f20686179206d61796f7269610000000000000000000000000000000000006000830152602082019050919050565b6000611bca60208361206b565b91507f4465626520686162657220616c206d656e6f7320646f73206f7063696f6e65736000830152602082019050919050565b6000611c0a60138361206b565b91507f536f6c6f20656c206368616972706572736f6e000000000000000000000000006000830152602082019050919050565b6000611c4a60238361206b565b91507f4e6f20736520707565646520656c696d696e617220616c20636861697270657260008301527f736f6e00000000000000000000000000000000000000000000000000000000006020830152604082019050919050565b6000611cb0600a8361206b565b91507f596120766f7461737465000000000000000000000000000000000000000000006000830152602082019050919050565b611cec81612175565b82525050565b611cfb81612175565b82525050565b6000602082019050611d16600083018461191a565b92915050565b6000602082019050611d3160008301846119fc565b92915050565b600060e0820190508181036000830152611d51818a611a44565b90508181036020830152611d658189611929565b90508181036040830152611d79818861199e565b9050611d8860608301876119fc565b611d9560808301866119fc565b81810360a0830152611da78185611a44565b9050611db660c0830184611cf2565b98975050505050505050565b60006080820190508181036000830152611ddc8187611a44565b9050611deb60208301866119fc565b8181036040830152611dfd8185611a44565b9050611e0c6060830184611cf2565b95945050505050565b60006020820190508181036000830152611e2e81611a7d565b9050919050565b60006020820190508181036000830152611e4e81611abd565b9050919050565b60006020820190508181036000830152611e6e81611afd565b9050919050565b60006020820190508181036000830152611e8e81611b3d565b9050919050565b60006020820190508181036000830152611eae81611b7d565b9050919050565b60006020820190508181036000830152611ece81611bbd565b9050919050565b60006020820190508181036000830152611eee81611bfd565b9050919050565b60006020820190508181036000830152611f0e81611c3d565b9050919050565b60006020820190508181036000830152611f2e81611ca3565b9050919050565b6000602082019050611f4a6000830184611cf2565b92915050565b6000604051905081810181811067ffffffffffffffff82111715611f7757611f766122c9565b5b8060405250919050565b600067ffffffffffffffff821115611f9c57611f9b6122c9565b5b602082029050602081019050919050565b600067ffffffffffffffff821115611fc857611fc76122c9565b5b601f19601f8301169050602081019050919050565b6000819050602082019050919050565b6000819050602082019050919050565b600081519050919050565b600081519050919050565b600081519050919050565b6000602082019050919050565b6000602082019050919050565b600082825260208201905092915050565b600082825260208201905092915050565b600082825260208201905092915050565b600082825260208201905092915050565b600061208782612175565b915061209283612175565b9250827fffffffffffffffffffffffffffffffffffffffffffffffffffffffffffffffff038211156120c7576120c661223c565b5b828201905092915050565b60006120dd82612175565b91506120e883612175565b9250826120f8576120f761226b565b5b828204905092915050565b600061210e82612175565b915061211983612175565b92508282101561212c5761212b61223c565b5b828203905092915050565b600061214282612155565b9050919050565b60008115159050919050565b600073ffffffffffffffffffffffffffffffffffffffff82169050919050565b6000819050919050565b82818337600083830152505050565b60005b838110156121ac578082015181840152602081019050612191565b838111156121bb576000848401525b50505050565b600060028204905060018216806121d957607f821691505b602082108114156121ed576121ec61229a565b5b50919050565b60006121fe82612175565b91507fffffffffffffffffffffffffffffffffffffffffffffffffffffffffffffffff8214156122315761223061223c565b5b600182019050919050565b7f4e487b7100000000000000000000000000000000000000000000000000000000600052601160045260246000fd5b7f4e487b7100000000000000000000000000000000000000000000000000000000600052601260045260246000fd5b7f4e487b7100000000000000000000000000000000000000000000000000000000600052602260045260246000fd5b7f4e487b7100000000000000000000000000000000000000000000000000000000600052604160045260246000fd5b6000601f19601f8301169050919050565b61231281612137565b811461231d57600080fd5b50565b61232981612175565b811461233457600080fd5b5056fea2646970667358221220e2e2b1ca9217d4dfe390246b8c8decb25ce11f467f87a6fad58bd62009c179a764736f6c63430008000033",
  "immutableReferences": {},
  "source": "// SPDX-License-Identifier: MIT\npragma solidity ^0.8.0;\n\ncontract DAO {\n    struct Proposal {\n        string description;\n        string[] options;\n        mapping(address => bool) voters;\n        mapping(uint => uint) votesPerOption;\n        bool executed;\n        string winningOption;\n        uint winningVotes;\n    }\n\n    address public chairperson;\n    Proposal[] public proposals;\n    mapping(address => bool) public members;\n    address[] public memberList;\n\n    modifier onlyChairperson() {\n        require(msg.sender == chairperson, \"Solo el chairperson\");\n        _;\n    }\n\n    modifier onlyMembers() {\n        require(members[msg.sender], \"Solo miembros pueden participar\");\n        _;\n    }\n\n    constructor(address[] memory initialMembers) {\n        chairperson = msg.sender;\n\n        for (uint i = 0; i < initialMembers.length; i++) {\n            address member = initialMembers[i];\n            if (!members[member]) {\n                members[member] = true;\n                memberList.push(member);\n            }\n        }\n\n        if (!members[chairperson]) {\n            members[chairperson] = true;\n            memberList.push(chairperson);\n        }\n    }\n\n    function addMember(address newMember) public onlyChairperson {\n        if (!members[newMember]) {\n            members[newMember] = true;\n            memberList.push(newMember);\n        }\n    }\n\n    function removeMember(address memberToRemove) public onlyChairperson {\n        require(members[memberToRemove], \"La direccion no es un miembro\");\n        require(memberToRemove != chairperson, \"No se puede eliminar al chairperson\");\n\n        members[memberToRemove] = false;\n\n        for (uint i = 0; i < memberList.length; i++) {\n            if (memberList[i] == memberToRemove) {\n                memberList[i] = memberList[memberList.length - 1];\n                memberList.pop();\n                break;\n            }\n        }\n    }\n\n    function createProposal(string memory description, string[] memory options) public onlyMembers {\n        require(options.length >= 2, \"Debe haber al menos dos opciones\");\n\n        Proposal storage newProp = proposals.push();\n        newProp.description = description;\n        newProp.executed = false;\n\n        for (uint i = 0; i < options.length; i++) {\n            newProp.options.push(options[i]);\n        }\n    }\n\n    function vote(uint proposalIndex, uint optionIndex) public onlyMembers {\n        Proposal storage proposal = proposals[proposalIndex];\n\n        require(!proposal.voters[msg.sender], \"Ya votaste\");\n        require(!proposal.executed, \"Propuesta ya ejecutada\");\n        require(optionIndex < proposal.options.length, \"Opcion invalida\");\n\n        proposal.voters[msg.sender] = true;\n        proposal.votesPerOption[optionIndex]++;\n    }\n\n    function executeProposal(uint proposalIndex) public onlyChairperson {\n        Proposal storage proposal = proposals[proposalIndex];\n        require(!proposal.executed, \"Propuesta ya ejecutada\");\n\n        uint totalVotes = 0;\n        for (uint i = 0; i < proposal.options.length; i++) {\n            totalVotes += proposal.votesPerOption[i];\n        }\n\n        require(totalVotes > (countMembers() / 2), \"No hay mayoria\");\n\n        uint winningVotes = 0;\n        uint winningIndex = 0;\n\n        for (uint i = 0; i < proposal.options.length; i++) {\n            if (proposal.votesPerOption[i] > winningVotes) {\n                winningVotes = proposal.votesPerOption[i];\n                winningIndex = i;\n            }\n        }\n\n        proposal.winningOption = proposal.options[winningIndex];\n        proposal.winningVotes = winningVotes;\n        proposal.executed = true;\n    }\n\n    function getProposal(uint index) public view returns (\n        string memory description,\n        string[] memory options,\n        uint[] memory voteCounts,\n        bool executed,\n        bool hasVoted,\n        string memory winningOption,\n        uint winningVotes\n    ) {\n        Proposal storage p = proposals[index];\n        uint[] memory counts = new uint[](p.options.length);\n\n        for (uint i = 0; i < p.options.length; i++) {\n            counts[i] = p.votesPerOption[i];\n        }\n\n        return (\n            p.description,\n            p.options,\n            counts,\n            p.executed,\n            p.voters[msg.sender],\n            p.winningOption,\n            p.winningVotes\n        );\n    }\n\n    function countMembers() public view returns (uint) {\n        return memberList.length;\n    }\n\n    function getProposalsCount() public view returns (uint) {\n        return proposals.length;\n    }\n\n    function isMember(address user) public view returns (bool) {\n        return members[user];\n    }\n}",
  "sourcePath": "/Users/alejandromarcosarias/DAO-DApp/contracts/DAO.sol",
  "compiler": {
    "name": "solc",
    "version": "0.8.0+commit.c7dfd78e.Emscripten.clang"
  },
  "schemaVersion": "3.4.16",
  "updatedAt": "2025-09-06T17:01:21.293Z",
  "networkType": "ethereum",
  "devdoc": {
    "kind": "dev",
    "methods": {},
    "version": 1
  },
  "userdoc": {
    "kind": "user",
    "methods": {},
    "version": 1
  }
}